{
  "_format": "hh-sol-artifact-1",
  "contractName": "Jury",
  "sourceName": "contracts/Jury.sol",
  "abi": [
    {
      "inputs": [
        {
          "internalType": "address[]",
          "name": "_initialJuryMembers",
          "type": "address[]"
        },
        {
          "internalType": "uint96",
          "name": "_jurySwap",
          "type": "uint96"
        },
        {
          "internalType": "uint8",
          "name": "_minJurySize",
          "type": "uint8"
        }
      ],
      "stateMutability": "nonpayable",
      "type": "constructor"
    },
    {
      "anonymous": false,
      "inputs": [
        {
          "indexed": true,
          "internalType": "uint256",
          "name": "disputeId",
          "type": "uint256"
        },
        {
          "indexed": false,
          "internalType": "uint256",
          "name": "newDeadline",
          "type": "uint256"
        }
      ],
      "name": "DisputeDeadlinePostponed",
      "type": "event"
    },
    {
      "anonymous": false,
      "inputs": [
        {
          "indexed": true,
          "internalType": "uint256",
          "name": "disputeId",
          "type": "uint256"
        },
        {
          "indexed": false,
          "internalType": "bool",
          "name": "verdict",
          "type": "bool"
        }
      ],
      "name": "DisputeResolved",
      "type": "event"
    },
    {
      "anonymous": false,
      "inputs": [
        {
          "indexed": true,
          "internalType": "uint256",
          "name": "juryId",
          "type": "uint256"
        },
        {
          "indexed": true,
          "internalType": "uint256[]",
          "name": "juryMembers",
          "type": "uint256[]"
        }
      ],
      "name": "JuryDutyAdded",
      "type": "event"
    },
    {
      "anonymous": false,
      "inputs": [
        {
          "indexed": true,
          "internalType": "uint256",
          "name": "juryId",
          "type": "uint256"
        }
      ],
      "name": "JuryDutyCompleted",
      "type": "event"
    },
    {
      "anonymous": false,
      "inputs": [
        {
          "indexed": true,
          "internalType": "uint256",
          "name": "juryId",
          "type": "uint256"
        },
        {
          "indexed": true,
          "internalType": "uint256",
          "name": "disputeId",
          "type": "uint256"
        },
        {
          "indexed": false,
          "internalType": "uint256",
          "name": "deadline",
          "type": "uint256"
        }
      ],
      "name": "NewDispute",
      "type": "event"
    },
    {
      "anonymous": false,
      "inputs": [
        {
          "indexed": true,
          "internalType": "address",
          "name": "proposer",
          "type": "address"
        },
        {
          "indexed": true,
          "internalType": "uint256",
          "name": "juryId",
          "type": "uint256"
        },
        {
          "indexed": true,
          "internalType": "uint256",
          "name": "proposedId",
          "type": "uint256"
        },
        {
          "indexed": false,
          "internalType": "uint256",
          "name": "deadline",
          "type": "uint256"
        }
      ],
      "name": "NewDisputeProposal",
      "type": "event"
    },
    {
      "anonymous": false,
      "inputs": [
        {
          "indexed": true,
          "internalType": "address",
          "name": "juryMember",
          "type": "address"
        },
        {
          "indexed": true,
          "internalType": "uint256",
          "name": "jurorId",
          "type": "uint256"
        }
      ],
      "name": "NewJuryPoolMember",
      "type": "event"
    },
    {
      "anonymous": false,
      "inputs": [
        {
          "indexed": false,
          "internalType": "uint256",
          "name": "juryId",
          "type": "uint256"
        },
        {
          "indexed": false,
          "internalType": "uint256[]",
          "name": "juryMembers",
          "type": "uint256[]"
        },
        {
          "indexed": false,
          "internalType": "uint256",
          "name": "expiration",
          "type": "uint256"
        }
      ],
      "name": "NewLiveJury",
      "type": "event"
    },
    {
      "anonymous": false,
      "inputs": [
        {
          "indexed": false,
          "internalType": "address",
          "name": "account",
          "type": "address"
        }
      ],
      "name": "Paused",
      "type": "event"
    },
    {
      "anonymous": false,
      "inputs": [
        {
          "indexed": true,
          "internalType": "uint256",
          "name": "proposedId",
          "type": "uint256"
        },
        {
          "indexed": true,
          "internalType": "uint256",
          "name": "jurorId",
          "type": "uint256"
        }
      ],
      "name": "ProposalPassed",
      "type": "event"
    },
    {
      "anonymous": false,
      "inputs": [
        {
          "indexed": false,
          "internalType": "address",
          "name": "account",
          "type": "address"
        }
      ],
      "name": "Unpaused",
      "type": "event"
    },
    {
      "anonymous": false,
      "inputs": [
        {
          "indexed": true,
          "internalType": "uint256",
          "name": "jurorId",
          "type": "uint256"
        },
        {
          "indexed": true,
          "internalType": "uint256",
          "name": "disputeId",
          "type": "uint256"
        },
        {
          "indexed": false,
          "internalType": "bool",
          "name": "decision",
          "type": "bool"
        }
      ],
      "name": "Voted",
      "type": "event"
    },
    {
      "inputs": [
        {
          "internalType": "address",
          "name": "_newMember",
          "type": "address"
        }
      ],
      "name": "addJuryPoolMember",
      "outputs": [],
      "stateMutability": "nonpayable",
      "type": "function"
    },
    {
      "inputs": [
        {
          "internalType": "uint256",
          "name": "_disputeProposalId",
          "type": "uint256"
        }
      ],
      "name": "approveDisputeProposal",
      "outputs": [],
      "stateMutability": "nonpayable",
      "type": "function"
    },
    {
      "inputs": [
        {
          "internalType": "uint256",
          "name": "",
          "type": "uint256"
        }
      ],
      "name": "disputeProposals",
      "outputs": [
        {
          "internalType": "address",
          "name": "proposer",
          "type": "address"
        },
        {
          "internalType": "uint256",
          "name": "juryId",
          "type": "uint256"
        },
        {
          "internalType": "bool",
          "name": "isApproved",
          "type": "bool"
        },
        {
          "internalType": "uint256",
          "name": "deadline",
          "type": "uint256"
        }
      ],
      "stateMutability": "view",
      "type": "function"
    },
    {
      "inputs": [
        {
          "internalType": "uint256",
          "name": "",
          "type": "uint256"
        }
      ],
      "name": "disputes",
      "outputs": [
        {
          "internalType": "uint256",
          "name": "juryId",
          "type": "uint256"
        },
        {
          "internalType": "uint256",
          "name": "deadline",
          "type": "uint256"
        },
        {
          "internalType": "bool",
          "name": "verdict",
          "type": "bool"
        },
        {
          "internalType": "bool",
          "name": "resolved",
          "type": "bool"
        }
      ],
      "stateMutability": "view",
      "type": "function"
    },
    {
      "inputs": [
        {
          "internalType": "uint256",
          "name": "_disputeId",
          "type": "uint256"
        }
      ],
      "name": "extendDisputeDeadline",
      "outputs": [],
      "stateMutability": "nonpayable",
      "type": "function"
    },
    {
      "inputs": [
        {
          "internalType": "uint256",
          "name": "_disputeId",
          "type": "uint256"
        }
      ],
      "name": "forceClose",
      "outputs": [],
      "stateMutability": "nonpayable",
      "type": "function"
    },
    {
      "inputs": [
        {
          "internalType": "uint256",
          "name": "",
          "type": "uint256"
        },
        {
          "internalType": "uint256",
          "name": "",
          "type": "uint256"
        }
      ],
      "name": "juries",
      "outputs": [
        {
          "internalType": "uint256",
          "name": "",
          "type": "uint256"
        }
      ],
      "stateMutability": "view",
      "type": "function"
    },
    {
      "inputs": [
        {
          "internalType": "uint256",
          "name": "",
          "type": "uint256"
        }
      ],
      "name": "juryExpiration",
      "outputs": [
        {
          "internalType": "uint256",
          "name": "",
          "type": "uint256"
        }
      ],
      "stateMutability": "view",
      "type": "function"
    },
    {
      "inputs": [
        {
          "internalType": "address",
          "name": "",
          "type": "address"
        }
      ],
      "name": "juryPoolMembers",
      "outputs": [
        {
          "internalType": "uint256",
          "name": "",
          "type": "uint256"
        }
      ],
      "stateMutability": "view",
      "type": "function"
    },
    {
      "inputs": [
        {
          "internalType": "uint256",
          "name": "_deadline",
          "type": "uint256"
        }
      ],
      "name": "newDisputeProposal",
      "outputs": [],
      "stateMutability": "nonpayable",
      "type": "function"
    },
    {
      "inputs": [],
      "name": "paused",
      "outputs": [
        {
          "internalType": "bool",
          "name": "",
          "type": "bool"
        }
      ],
      "stateMutability": "view",
      "type": "function"
    },
    {
      "inputs": [
        {
          "internalType": "uint256",
          "name": "_disputeId",
          "type": "uint256"
        },
        {
          "internalType": "bool",
          "name": "_vote",
          "type": "bool"
        }
      ],
      "name": "vote",
      "outputs": [],
      "stateMutability": "nonpayable",
      "type": "function"
    }
  ],
  "bytecode": "0x60806040523480156200001157600080fd5b5060405162002ed938038062002ed9833981810160405281019062000037919062000817565b60008060006101000a81548160ff02191690831515021790555060018160ff16116200009a576040517f08c379a0000000000000000000000000000000000000000000000000000000008152600401620000919062000919565b60405180910390fd5b6000600282620000ab91906200096a565b60ff1611620000f1576040517f08c379a0000000000000000000000000000000000000000000000000000000008152600401620000e89062000a18565b60405180910390fd5b60028162000100919062000a69565b60ff168351101562000149576040517f08c379a0000000000000000000000000000000000000000000000000000000008152600401620001409062000b21565b60405180910390fd5b60005b835181101562000329576000600a600086848151811062000172576200017162000b43565b5b602002602001015173ffffffffffffffffffffffffffffffffffffffff1673ffffffffffffffffffffffffffffffffffffffff1681526020019081526020016000205414620001f8576040517f08c379a0000000000000000000000000000000000000000000000000000000008152600401620001ef9062000be8565b60405180910390fd5b60018162000207919062000c14565b600a600086848151811062000221576200022062000b43565b5b602002602001015173ffffffffffffffffffffffffffffffffffffffff1673ffffffffffffffffffffffffffffffffffffffff168152602001908152602001600020819055506001600960006001846200027c919062000c14565b815260200190815260200160002060000160006101000a81548160ff021916908315150217905550600181620002b3919062000c14565b848281518110620002c957620002c862000b43565b5b602002602001015173ffffffffffffffffffffffffffffffffffffffff167f6cf89f4a284d6bcbbba4e04a53e34c6a8ea0c335352b68732736fdafce388dc760405160405180910390a38080620003209062000c71565b9150506200014c565b50600160048190555082516003819055508060ff16600281905550816bffffffffffffffffffffffff166001819055506200039a42446001604051602001620003759392919062000ce4565b6040516020818303038152906040528051906020012060001c620003a360201b60201c565b50505062000f0a565b60008060035490506000600454905060005b6002548110156200051f5760006001848787604051602001620003da92919062000d27565b6040516020818303038152906040528051906020012060001c620003ff919062000d57565b6200040b919062000c14565b90506000600960008381526020019081526020016000206040518060800160405290816000820160009054906101000a900460ff1615151515815260200160018201548152602001600282015481526020016003820154815250509050806000015180156200049b57506000816020015114806200049a5750836001826020015162000498919062000c14565b105b5b156200050757836009600084815260200190815260200160002060010181905550600b60008581526020019081526020016000208290806001815401808255809150506001900390600052602060002001600090919091909150558280620005039062000c71565b9350505b8580620005149062000c71565b9650505050620003b5565b5060006001544262000532919062000c14565b905080600c6000848152602001908152602001600020819055507fb3c30fe9cd13f86c80318bef190e0071e5fecf6d2465f4ebbe0f923899af700c82600b600085815260200190815260200160002083604051620005939392919062000ec6565b60405180910390a15050505050565b6000604051905090565b600080fd5b600080fd5b600080fd5b6000601f19601f8301169050919050565b7f4e487b7100000000000000000000000000000000000000000000000000000000600052604160045260246000fd5b6200060682620005bb565b810181811067ffffffffffffffff82111715620006285762000627620005cc565b5b80604052505050565b60006200063d620005a2565b90506200064b8282620005fb565b919050565b600067ffffffffffffffff8211156200066e576200066d620005cc565b5b602082029050602081019050919050565b600080fd5b600073ffffffffffffffffffffffffffffffffffffffff82169050919050565b6000620006b18262000684565b9050919050565b620006c381620006a4565b8114620006cf57600080fd5b50565b600081519050620006e381620006b8565b92915050565b600062000700620006fa8462000650565b62000631565b905080838252602082019050602084028301858111156200072657620007256200067f565b5b835b818110156200075357806200073e8882620006d2565b84526020840193505060208101905062000728565b5050509392505050565b600082601f830112620007755762000774620005b6565b5b815162000787848260208601620006e9565b91505092915050565b60006bffffffffffffffffffffffff82169050919050565b620007b38162000790565b8114620007bf57600080fd5b50565b600081519050620007d381620007a8565b92915050565b600060ff82169050919050565b620007f181620007d9565b8114620007fd57600080fd5b50565b6000815190506200081181620007e6565b92915050565b600080600060608486031215620008335762000832620005ac565b5b600084015167ffffffffffffffff811115620008545762000853620005b1565b5b62000862868287016200075d565b93505060206200087586828701620007c2565b9250506040620008888682870162000800565b9150509250925092565b600082825260208201905092915050565b7f4a7572792e636f6e7374727563746f723a206a7572792073697a65206174206c60008201527f6561737420330000000000000000000000000000000000000000000000000000602082015250565b60006200090160268362000892565b91506200090e82620008a3565b604082019050919050565b600060208201905081810360008301526200093481620008f2565b9050919050565b7f4e487b7100000000000000000000000000000000000000000000000000000000600052601260045260246000fd5b60006200097782620007d9565b91506200098483620007d9565b9250826200099757620009966200093b565b5b828206905092915050565b7f4a7572792e636f6e7374727563746f723a206a7572792073697a65206d75737460008201527f206265206f646400000000000000000000000000000000000000000000000000602082015250565b600062000a0060278362000892565b915062000a0d82620009a2565b604082019050919050565b6000602082019050818103600083015262000a3381620009f1565b9050919050565b7f4e487b7100000000000000000000000000000000000000000000000000000000600052601160045260246000fd5b600062000a7682620007d9565b915062000a8383620007d9565b92508160ff048311821515161562000aa05762000a9f62000a3a565b5b828202905092915050565b7f4a7572792e636f6e7374727563746f723a206e6f7420656e6f756768206a757260008201527f79206d656d626572730000000000000000000000000000000000000000000000602082015250565b600062000b0960298362000892565b915062000b168262000aab565b604082019050919050565b6000602082019050818103600083015262000b3c8162000afa565b9050919050565b7f4e487b7100000000000000000000000000000000000000000000000000000000600052603260045260246000fd5b7f4a7572792e636f6e7374727563746f723a206475706c6963617465204a75727960008201527f206d656d62657200000000000000000000000000000000000000000000000000602082015250565b600062000bd060278362000892565b915062000bdd8262000b72565b604082019050919050565b6000602082019050818103600083015262000c038162000bc1565b9050919050565b6000819050919050565b600062000c218262000c0a565b915062000c2e8362000c0a565b9250827fffffffffffffffffffffffffffffffffffffffffffffffffffffffffffffffff0382111562000c665762000c6562000a3a565b5b828201905092915050565b600062000c7e8262000c0a565b91507fffffffffffffffffffffffffffffffffffffffffffffffffffffffffffffffff82141562000cb45762000cb362000a3a565b5b600182019050919050565b6000819050919050565b62000cde62000cd88262000c0a565b62000cbf565b82525050565b600062000cf2828662000cc9565b60208201915062000d04828562000cc9565b60208201915062000d16828462000cc9565b602082019150819050949350505050565b600062000d35828562000cc9565b60208201915062000d47828462000cc9565b6020820191508190509392505050565b600062000d648262000c0a565b915062000d718362000c0a565b92508262000d845762000d836200093b565b5b828206905092915050565b62000d9a8162000c0a565b82525050565b600081549050919050565b600082825260208201905092915050565b60008190508160005260206000209050919050565b62000ddc8162000c0a565b82525050565b600062000df0838362000dd1565b60208301905092915050565b60008160001c9050919050565b6000819050919050565b600062000e2a62000e248362000dfc565b62000e09565b9050919050565b600062000e3f825462000e13565b9050919050565b6000600182019050919050565b600062000e608262000da0565b62000e6c818562000dab565b935062000e798362000dbc565b8060005b8381101562000eb95762000e918262000e31565b62000e9d888262000de2565b975062000eaa8362000e46565b92505060018101905062000e7d565b5085935050505092915050565b600060608201905062000edd600083018662000d8f565b818103602083015262000ef1818562000e53565b905062000f02604083018462000d8f565b949350505050565b611fbf8062000f1a6000396000f3fe608060405234801561001057600080fd5b50600436106100b45760003560e01c8063a94c8f3d11610071578063a94c8f3d146101a2578063c84663b0146101d5578063c9d27afe146101f1578063ccd0429d1461020d578063d652ef1a14610229578063e922de5014610259576100b4565b806301144f44146100b95780632755a13b146100e9578063564a565d146101055780635c975abb1461013857806364ca6b1414610156578063a414abb414610172575b600080fd5b6100d360048036038101906100ce9190611418565b610275565b6040516100e09190611467565b60405180910390f35b61010360048036038101906100fe9190611482565b6102a6565b005b61011f600480360381019061011a9190611482565b6102c9565b60405161012f94939291906114ca565b60405180910390f35b610140610313565b60405161014d919061150f565b60405180910390f35b610170600480360381019061016b9190611482565b610329565b005b61018c60048036038101906101879190611482565b6103fe565b6040516101999190611467565b60405180910390f35b6101bc60048036038101906101b79190611482565b610416565b6040516101cc949392919061156b565b60405180910390f35b6101ef60048036038101906101ea91906115dc565b610473565b005b61020b60048036038101906102069190611635565b610651565b005b61022760048036038101906102229190611482565b610871565b005b610243600480360381019061023e91906115dc565b610a4a565b6040516102509190611467565b60405180910390f35b610273600480360381019061026e9190611482565b610a62565b005b600b602052816000526040600020818154811061029157600080fd5b90600052602060002001600091509150505481565b6102c6816007600084815260200190815260200160002060000154610d3c565b50565b60076020528060005260406000206000915090508060000154908060010154908060020160009054906101000a900460ff16908060020160019054906101000a900460ff16905084565b60008060009054906101000a900460ff16905090565b610331610f96565b6103506007600083815260200190815260200160002060000154611042565b61038f576040517f08c379a0000000000000000000000000000000000000000000000000000000008152600401610386906116f8565b60405180910390fd5b6000620151806007600084815260200190815260200160002060010160008282546103ba9190611747565b9250508190559050817f4da9b675e578acf05cb72712fc12154fc303610a9bef918062e80e7b25aa045f826040516103f29190611467565b60405180910390a25050565b600c6020528060005260406000206000915090505481565b60086020528060005260406000206000915090508060000160009054906101000a900473ffffffffffffffffffffffffffffffffffffffff16908060010154908060020160009054906101000a900460ff16908060030154905084565b6000600a60003373ffffffffffffffffffffffffffffffffffffffff1673ffffffffffffffffffffffffffffffffffffffff16815260200190815260200160002054116104f5576040517f08c379a00000000000000000000000000000000000000000000000000000000081526004016104ec906117e9565b60405180910390fd5b6000600a60008373ffffffffffffffffffffffffffffffffffffffff1673ffffffffffffffffffffffffffffffffffffffff1681526020019081526020016000205414610577576040517f08c379a000000000000000000000000000000000000000000000000000000000815260040161056e9061187b565b60405180910390fd5b6003600081548092919061058a9061189b565b91905055506000600354905080600a60008473ffffffffffffffffffffffffffffffffffffffff1673ffffffffffffffffffffffffffffffffffffffff1681526020019081526020016000208190555060016009600083815260200190815260200160002060000160006101000a81548160ff021916908315150217905550808273ffffffffffffffffffffffffffffffffffffffff167f6cf89f4a284d6bcbbba4e04a53e34c6a8ea0c335352b68732736fdafce388dc760405160405180910390a35050565b60006007600084815260200190815260200160002060405180608001604052908160008201548152602001600182015481526020016002820160009054906101000a900460ff161515151581526020016002820160019054906101000a900460ff1615151515815250509050806060015115610702576040517f08c379a00000000000000000000000000000000000000000000000000000000081526004016106f990611956565b60405180910390fd5b61070f8160000151611042565b61074e576040517f08c379a0000000000000000000000000000000000000000000000000000000008152600401610745906119c2565b60405180910390fd5b6000600a60003373ffffffffffffffffffffffffffffffffffffffff1673ffffffffffffffffffffffffffffffffffffffff168152602001908152602001600020549050816020015142106107b0576107ab848360000151610d3c565b61086b565b6040518060400160405280841515815260200160011515815250600d6000868152602001908152602001600020600083815260200190815260200160002060008201518160000160006101000a81548160ff02191690831515021790555060208201518160000160016101000a81548160ff02191690831515021790555090505083817f67b60bc862e9c013a238015361df4bb95a4abfe78309ba4a4d7a04d2fe29e43285604051610862919061150f565b60405180910390a35b50505050565b610879610f96565b6000600454905061088981611042565b156108c9576040517f08c379a00000000000000000000000000000000000000000000000000000000081526004016108c090611a54565b60405180910390fd5b42821161090b576040517f08c379a000000000000000000000000000000000000000000000000000000000815260040161090290611ae6565b60405180910390fd5b60006006549050600660008154809291906109259061189b565b919050555060405180608001604052803373ffffffffffffffffffffffffffffffffffffffff168152602001838152602001600015158152602001848152506008600083815260200190815260200160002060008201518160000160006101000a81548173ffffffffffffffffffffffffffffffffffffffff021916908373ffffffffffffffffffffffffffffffffffffffff1602179055506020820151816001015560408201518160020160006101000a81548160ff0219169083151502179055506060820151816003015590505080823373ffffffffffffffffffffffffffffffffffffffff167f75e358a93c74512dfb976defba1141797850778e28171591715e8cfd4107980f86604051610a3d9190611467565b60405180910390a4505050565b600a6020528060005260406000206000915090505481565b6000600a60003373ffffffffffffffffffffffffffffffffffffffff1673ffffffffffffffffffffffffffffffffffffffff1681526020019081526020016000205411610ae4576040517f08c379a0000000000000000000000000000000000000000000000000000000008152600401610adb906117e9565b60405180910390fd5b610aec610f96565b6000600860008381526020019081526020016000206040518060800160405290816000820160009054906101000a900473ffffffffffffffffffffffffffffffffffffffff1673ffffffffffffffffffffffffffffffffffffffff1673ffffffffffffffffffffffffffffffffffffffff168152602001600182015481526020016002820160009054906101000a900460ff161515151581526020016003820154815250509050806040015115610bd8576040517f08c379a0000000000000000000000000000000000000000000000000000000008152600401610bcf90611b78565b60405180910390fd5b806000015173ffffffffffffffffffffffffffffffffffffffff163373ffffffffffffffffffffffffffffffffffffffff161415610c4b576040517f08c379a0000000000000000000000000000000000000000000000000000000008152600401610c4290611c0a565b60405180910390fd5b80606001514210610c91576040517f08c379a0000000000000000000000000000000000000000000000000000000008152600401610c8890611c9c565b60405180910390fd5b60016008600084815260200190815260200160002060020160006101000a81548160ff02191690831515021790555060096000600a60003373ffffffffffffffffffffffffffffffffffffffff1673ffffffffffffffffffffffffffffffffffffffff1681526020019081526020016000205481526020019081526020016000206002016000815480929190610d269061189b565b9190505550610d3881606001516110fe565b5050565b6000600b6000838152602001908152602001600020805480602002602001604051908101604052809291908181526020018280548015610d9b57602002820191906000526020600020905b815481526020019060010190808311610d87575b50505050509050600080600090505b82518160ff161015610ebd576000600d60008781526020019081526020016000206000858460ff1681518110610de357610de2611cbc565b5b602002602001015181526020019081526020016000206040518060400160405290816000820160009054906101000a900460ff161515151581526020016000820160019054906101000a900460ff1615151515815250509050806020015115610ea957806000015115610e5f578280610e5b90611cf8565b9350505b60096000858460ff1681518110610e7957610e78611cbc565b5b602002602001015181526020019081526020016000206003016000815480929190610ea39061189b565b91905055505b508080610eb590611cf8565b915050610daa565b508060ff1660028054610ed09190611d51565b1015610f065760016007600086815260200190815260200160002060020160006101000a81548160ff0219169083151502179055505b60016007600086815260200190815260200160002060020160016101000a81548160ff021916908315150217905550837f5a87909bff68caaaaf0b3fd9c74eeccc928832f879315e5c6fb7a73612f26c0c6007600087815260200190815260200160002060020160009054906101000a900460ff16604051610f88919061150f565b60405180910390a250505050565b60006004549050600c600082815260200190815260200160002054421061103f57807fc796ad74732d2a065b3161c4bf85138cb8d4b0561d078cc02aa237d2e29141db60405160405180910390a260046000815480929190610ff79061189b565b919050555061103e424460018461100e9190611747565b60405160200161102093929190611da3565b6040516020818303038152906040528051906020012060001c6111f3565b5b50565b60008060096000600a60003373ffffffffffffffffffffffffffffffffffffffff1673ffffffffffffffffffffffffffffffffffffffff1681526020019081526020016000205481526020019081526020016000206040518060800160405290816000820160009054906101000a900460ff161515151581526020016001820154815260200160028201548152602001600382015481525050905082816020015114156110f35760019150506110f9565b60009150505b919050565b60006005549050600060045490506005600081548092919061111f9061189b565b919050555060405180608001604052808281526020018481526020016000151581526020016000151581525060076000848152602001908152602001600020600082015181600001556020820151816001015560408201518160020160006101000a81548160ff02191690831515021790555060608201518160020160016101000a81548160ff02191690831515021790555090505080827fd739c8b7fe870f381c5442416ff79d9f44c3e1d54a16ce39fc0fbe8206c4a6e8856040516111e69190611467565b60405180910390a3505050565b60008060035490506000600454905060005b60025481101561135e5760006001848787604051602001611227929190611de0565b6040516020818303038152906040528051906020012060001c61124a9190611e0c565b6112549190611747565b90506000600960008381526020019081526020016000206040518060800160405290816000820160009054906101000a900460ff1615151515815260200160018201548152602001600282015481526020016003820154815250509050806000015180156112e057506000816020015114806112df575083600182602001516112dd9190611747565b105b5b1561134957836009600084815260200190815260200160002060010181905550600b600085815260200190815260200160002082908060018154018082558091505060019003906000526020600020016000909190919091505582806113459061189b565b9350505b85806113549061189b565b9650505050611205565b5060006001544261136f9190611747565b905080600c6000848152602001908152602001600020819055507fb3c30fe9cd13f86c80318bef190e0071e5fecf6d2465f4ebbe0f923899af700c82600b6000858152602001908152602001600020836040516113ce93929190611f4b565b60405180910390a15050505050565b600080fd5b6000819050919050565b6113f5816113e2565b811461140057600080fd5b50565b600081359050611412816113ec565b92915050565b6000806040838503121561142f5761142e6113dd565b5b600061143d85828601611403565b925050602061144e85828601611403565b9150509250929050565b611461816113e2565b82525050565b600060208201905061147c6000830184611458565b92915050565b600060208284031215611498576114976113dd565b5b60006114a684828501611403565b91505092915050565b60008115159050919050565b6114c4816114af565b82525050565b60006080820190506114df6000830187611458565b6114ec6020830186611458565b6114f960408301856114bb565b61150660608301846114bb565b95945050505050565b600060208201905061152460008301846114bb565b92915050565b600073ffffffffffffffffffffffffffffffffffffffff82169050919050565b60006115558261152a565b9050919050565b6115658161154a565b82525050565b6000608082019050611580600083018761155c565b61158d6020830186611458565b61159a60408301856114bb565b6115a76060830184611458565b95945050505050565b6115b98161154a565b81146115c457600080fd5b50565b6000813590506115d6816115b0565b92915050565b6000602082840312156115f2576115f16113dd565b5b6000611600848285016115c7565b91505092915050565b611612816114af565b811461161d57600080fd5b50565b60008135905061162f81611609565b92915050565b6000806040838503121561164c5761164b6113dd565b5b600061165a85828601611403565b925050602061166b85828601611620565b9150509250929050565b600082825260208201905092915050565b7f4a7572792e657874656e6444697370757465446561646c696e653a206e6f742060008201527f696e206a75727900000000000000000000000000000000000000000000000000602082015250565b60006116e2602783611675565b91506116ed82611686565b604082019050919050565b60006020820190508181036000830152611711816116d5565b9050919050565b7f4e487b7100000000000000000000000000000000000000000000000000000000600052601160045260246000fd5b6000611752826113e2565b915061175d836113e2565b9250827fffffffffffffffffffffffffffffffffffffffffffffffffffffffffffffffff0382111561179257611791611718565b5b828201905092915050565b7f63616c6c6572206d757374206265206a75727920706f6f6c206d656d62657200600082015250565b60006117d3601f83611675565b91506117de8261179d565b602082019050919050565b60006020820190508181036000830152611802816117c6565b9050919050565b7f4a7572792e6164644a757279506f6f6c4d656d6265723a204a75726f7220616c60008201527f7265616479206578697374730000000000000000000000000000000000000000602082015250565b6000611865602c83611675565b915061187082611809565b604082019050919050565b6000602082019050818103600083015261189481611858565b9050919050565b60006118a6826113e2565b91507fffffffffffffffffffffffffffffffffffffffffffffffffffffffffffffffff8214156118d9576118d8611718565b5b600182019050919050565b7f4a7572792e766f74653a206469737075746520616c7265616479207265736f6c60008201527f7665640000000000000000000000000000000000000000000000000000000000602082015250565b6000611940602383611675565b915061194b826118e4565b604082019050919050565b6000602082019050818103600083015261196f81611933565b9050919050565b7f4a7572792e766f74653a206d656d626572206e6f7420696e206a757279000000600082015250565b60006119ac601d83611675565b91506119b782611976565b602082019050919050565b600060208201905081810360008301526119db8161199f565b9050919050565b7f4a7572792e6e65774469737075746550726f706f73616c3a206a75726f72206160008201527f6c726561647920696e206a757279000000000000000000000000000000000000602082015250565b6000611a3e602e83611675565b9150611a49826119e2565b604082019050919050565b60006020820190508181036000830152611a6d81611a31565b9050919050565b7f4a7572792e6e65774469737075746550726f706f73616c3a20646561646c696e60008201527f652068617320616c726561647920706173740000000000000000000000000000602082015250565b6000611ad0603283611675565b9150611adb82611a74565b604082019050919050565b60006020820190508181036000830152611aff81611ac3565b9050919050565b7f4a7572792e617070726f76654469737075746550726f706f73616c3a20616c7260008201527f6561647920617070726f76656400000000000000000000000000000000000000602082015250565b6000611b62602d83611675565b9150611b6d82611b06565b604082019050919050565b60006020820190508181036000830152611b9181611b55565b9050919050565b7f4a7572792e617070726f7665644469737075746550726f706f73616c3a20707260008201527f6f706f7365722063616e206e6f7420617070726f766520646973707574650000602082015250565b6000611bf4603e83611675565b9150611bff82611b98565b604082019050919050565b60006020820190508181036000830152611c2381611be7565b9050919050565b7f4a7572792e617070726f76654469737075746550726f706f73616c3a2064656160008201527f646c696e65206861732070617374000000000000000000000000000000000000602082015250565b6000611c86602e83611675565b9150611c9182611c2a565b604082019050919050565b60006020820190508181036000830152611cb581611c79565b9050919050565b7f4e487b7100000000000000000000000000000000000000000000000000000000600052603260045260246000fd5b600060ff82169050919050565b6000611d0382611ceb565b915060ff821415611d1757611d16611718565b5b600182019050919050565b7f4e487b7100000000000000000000000000000000000000000000000000000000600052601260045260246000fd5b6000611d5c826113e2565b9150611d67836113e2565b925082611d7757611d76611d22565b5b828204905092915050565b6000819050919050565b611d9d611d98826113e2565b611d82565b82525050565b6000611daf8286611d8c565b602082019150611dbf8285611d8c565b602082019150611dcf8284611d8c565b602082019150819050949350505050565b6000611dec8285611d8c565b602082019150611dfc8284611d8c565b6020820191508190509392505050565b6000611e17826113e2565b9150611e22836113e2565b925082611e3257611e31611d22565b5b828206905092915050565b600081549050919050565b600082825260208201905092915050565b60008190508160005260206000209050919050565b611e77816113e2565b82525050565b6000611e898383611e6e565b60208301905092915050565b60008160001c9050919050565b6000819050919050565b6000611ebf611eba83611e95565b611ea2565b9050919050565b6000611ed28254611eac565b9050919050565b6000600182019050919050565b6000611ef182611e3d565b611efb8185611e48565b9350611f0683611e59565b8060005b83811015611f3e57611f1b82611ec6565b611f258882611e7d565b9750611f3083611ed9565b925050600181019050611f0a565b5085935050505092915050565b6000606082019050611f606000830186611458565b8181036020830152611f728185611ee6565b9050611f816040830184611458565b94935050505056fea2646970667358221220496745756ead839a3aabf11e57d99b7f4e1a48362c95c972f4c61499d0afeec264736f6c63430008090033",
  "linkReferences": {},
  "deployedLinkReferences": {}
}