{
  "_format": "hh-sol-artifact-1",
  "contractName": "SoulFundFactory",
  "sourceName": "contracts/SoulFundFactory.sol",
  "abi": [
    {
      "inputs": [],
      "stateMutability": "nonpayable",
      "type": "constructor"
    },
    {
      "anonymous": false,
      "inputs": [
        {
          "indexed": false,
          "internalType": "uint8",
          "name": "version",
          "type": "uint8"
        }
      ],
      "name": "Initialized",
      "type": "event"
    },
    {
      "anonymous": false,
      "inputs": [
        {
          "indexed": true,
          "internalType": "address",
          "name": "tokenAddress",
          "type": "address"
        },
        {
          "indexed": true,
          "internalType": "address",
          "name": "beneficiary",
          "type": "address"
        },
        {
          "indexed": false,
          "internalType": "uint256",
          "name": "vestingDate",
          "type": "uint256"
        },
        {
          "indexed": false,
          "internalType": "uint256",
          "name": "depositedAmount",
          "type": "uint256"
        }
      ],
      "name": "NewSoulFundTokenDeployed",
      "type": "event"
    },
    {
      "inputs": [
        {
          "internalType": "address",
          "name": "_beneficiary",
          "type": "address"
        },
        {
          "internalType": "uint256",
          "name": "_vestingDate",
          "type": "uint256"
        }
      ],
      "name": "deployNewSoulFund",
      "outputs": [],
      "stateMutability": "payable",
      "type": "function"
    },
    {
      "inputs": [
        {
          "internalType": "uint256",
          "name": "",
          "type": "uint256"
        }
      ],
      "name": "funds",
      "outputs": [
        {
          "internalType": "address",
          "name": "",
          "type": "address"
        }
      ],
      "stateMutability": "view",
      "type": "function"
    },
    {
      "inputs": [
        {
          "internalType": "address",
          "name": "_data",
          "type": "address"
        }
      ],
      "name": "initialize",
      "outputs": [],
      "stateMutability": "nonpayable",
      "type": "function"
    }
  ],
  "bytecode": "0x608060405234801561001057600080fd5b5061001f61002460201b60201c565b6101bf565b600060019054906101000a900460ff1615610074576040517f08c379a000000000000000000000000000000000000000000000000000000000815260040161006b90610168565b60405180910390fd5b60ff801660008054906101000a900460ff1660ff1610156100e35760ff6000806101000a81548160ff021916908360ff1602179055507f7f26b83ff96e1f2b6a682f133852f6798a09c465da95921460cefb384740249860ff6040516100da91906101a4565b60405180910390a15b565b600082825260208201905092915050565b7f496e697469616c697a61626c653a20636f6e747261637420697320696e69746960008201527f616c697a696e6700000000000000000000000000000000000000000000000000602082015250565b60006101526027836100e5565b915061015d826100f6565b604082019050919050565b6000602082019050818103600083015261018181610145565b9050919050565b600060ff82169050919050565b61019e81610188565b82525050565b60006020820190506101b96000830184610195565b92915050565b615d4180620001cf6000396000f3fe608060405260043610620000385760003560e01c8063653457b3146200003d5780637b8e8895146200005d578063c4d66de814620000a1575b600080fd5b6200005b60048036038101906200005591906200059c565b620000cf565b005b3480156200006a57600080fd5b50620000896004803603810190620000839190620005e3565b6200030f565b60405162000098919062000626565b60405180910390f35b348015620000ae57600080fd5b50620000cd6004803603810190620000c7919062000643565b62000342565b005b600073ffffffffffffffffffffffffffffffffffffffff168273ffffffffffffffffffffffffffffffffffffffff16141562000142576040517f08c379a0000000000000000000000000000000000000000000000000000000008152600401620001399062000722565b60405180910390fd5b42811162000187576040517f08c379a00000000000000000000000000000000000000000000000000000000081526004016200017e90620007e0565b60405180910390fd5b60003411620001cd576040517f08c379a0000000000000000000000000000000000000000000000000000000008152600401620001c49062000878565b60405180910390fd5b6001806000828254620001e19190620008c9565b925050819055506000348383600260009054906101000a900473ffffffffffffffffffffffffffffffffffffffff166040516200021e90620004e9565b6200022c9392919062000937565b6040518091039082f09050801580156200024a573d6000803e3d6000fd5b5090508060036000600154815260200190815260200160002060006101000a81548173ffffffffffffffffffffffffffffffffffffffff021916908373ffffffffffffffffffffffffffffffffffffffff1602179055508273ffffffffffffffffffffffffffffffffffffffff163073ffffffffffffffffffffffffffffffffffffffff167fd0fe6c5b2d1f8e291d71df81c1551cf30e28635b3e74c69f2314eb891e6e5d1684346040516200030292919062000974565b60405180910390a3505050565b60036020528060005260406000206000915054906101000a900473ffffffffffffffffffffffffffffffffffffffff1681565b60008060019054906101000a900460ff16159050808015620003745750600160008054906101000a900460ff1660ff16105b80620003a557506200038630620004c6565b158015620003a45750600160008054906101000a900460ff1660ff16145b5b620003e7576040517f08c379a0000000000000000000000000000000000000000000000000000000008152600401620003de9062000a17565b60405180910390fd5b60016000806101000a81548160ff021916908360ff160217905550801562000425576001600060016101000a81548160ff0219169083151502179055505b81600260006101000a81548173ffffffffffffffffffffffffffffffffffffffff021916908373ffffffffffffffffffffffffffffffffffffffff1602179055508015620004c25760008060016101000a81548160ff0219169083151502179055507f7f26b83ff96e1f2b6a682f133852f6798a09c465da95921460cefb38474024986001604051620004b9919062000a93565b60405180910390a15b5050565b6000808273ffffffffffffffffffffffffffffffffffffffff163b119050919050565b61525b8062000ab183390190565b600080fd5b600073ffffffffffffffffffffffffffffffffffffffff82169050919050565b60006200052982620004fc565b9050919050565b6200053b816200051c565b81146200054757600080fd5b50565b6000813590506200055b8162000530565b92915050565b6000819050919050565b620005768162000561565b81146200058257600080fd5b50565b60008135905062000596816200056b565b92915050565b60008060408385031215620005b657620005b5620004f7565b5b6000620005c6858286016200054a565b9250506020620005d98582860162000585565b9150509250929050565b600060208284031215620005fc57620005fb620004f7565b5b60006200060c8482850162000585565b91505092915050565b62000620816200051c565b82525050565b60006020820190506200063d600083018462000615565b92915050565b6000602082840312156200065c576200065b620004f7565b5b60006200066c848285016200054a565b91505092915050565b600082825260208201905092915050565b7f536f756c46756e64466163746f72792e6465706c6f794e6577536f756c46756e60008201527f643a206d7573742068617665206174206c65617374206f6e652062656e65666960208201527f6369617279000000000000000000000000000000000000000000000000000000604082015250565b60006200070a60458362000675565b9150620007178262000686565b606082019050919050565b600060208201905081810360008301526200073d81620006fb565b9050919050565b7f536f756c46756e64466163746f72792e6465706c6f794e6577536f756c46756e60008201527f643a2076657374696e67206d75737420626520736f6d6574696d6520696e207460208201527f6865206675747572650000000000000000000000000000000000000000000000604082015250565b6000620007c860498362000675565b9150620007d58262000744565b606082019050919050565b60006020820190508181036000830152620007fb81620007b9565b9050919050565b7f536f756c46756e64466163746f72792e6465706c6f794e6577536f756c46756e60008201527f643a206e6f2066756e6473206465706f73697465640000000000000000000000602082015250565b60006200086060358362000675565b91506200086d8262000802565b604082019050919050565b60006020820190508181036000830152620008938162000851565b9050919050565b7f4e487b7100000000000000000000000000000000000000000000000000000000600052601160045260246000fd5b6000620008d68262000561565b9150620008e38362000561565b9250827fffffffffffffffffffffffffffffffffffffffffffffffffffffffffffffffff038211156200091b576200091a6200089a565b5b828201905092915050565b620009318162000561565b82525050565b60006060820190506200094e600083018662000615565b6200095d602083018562000926565b6200096c604083018462000615565b949350505050565b60006040820190506200098b600083018562000926565b6200099a602083018462000926565b9392505050565b7f496e697469616c697a61626c653a20636f6e747261637420697320616c72656160008201527f647920696e697469616c697a6564000000000000000000000000000000000000602082015250565b6000620009ff602e8362000675565b915062000a0c82620009a1565b604082019050919050565b6000602082019050818103600083015262000a3281620009f0565b9050919050565b6000819050919050565b600060ff82169050919050565b6000819050919050565b600062000a7b62000a7562000a6f8462000a39565b62000a50565b62000a43565b9050919050565b62000a8d8162000a5a565b82525050565b600060208201905062000aaa600083018462000a82565b9291505056fe60806040526040516200525b3803806200525b833981810160405281019062000029919062000249565b6040518060400160405280600881526020017f536f756c46756e640000000000000000000000000000000000000000000000008152506040518060400160405280600381526020017f534c4600000000000000000000000000000000000000000000000000000000008152508160009080519060200190620000ad929190620000f4565b508060019080519060200190620000c6929190620000f4565b5050506000600660006101000a81548160ff021916908315150217905550816009819055505050506200030a565b8280546200010290620002d4565b90600052602060002090601f01602090048101928262000126576000855562000172565b82601f106200014157805160ff191683800117855562000172565b8280016001018555821562000172579182015b828111156200017157825182559160200191906001019062000154565b5b50905062000181919062000185565b5090565b5b80821115620001a057600081600090555060010162000186565b5090565b600080fd5b600073ffffffffffffffffffffffffffffffffffffffff82169050919050565b6000620001d682620001a9565b9050919050565b620001e881620001c9565b8114620001f457600080fd5b50565b6000815190506200020881620001dd565b92915050565b6000819050919050565b62000223816200020e565b81146200022f57600080fd5b50565b600081519050620002438162000218565b92915050565b600080600060608486031215620002655762000264620001a4565b5b60006200027586828701620001f7565b9350506020620002888682870162000232565b92505060406200029b86828701620001f7565b9150509250925092565b7f4e487b7100000000000000000000000000000000000000000000000000000000600052602260045260246000fd5b60006002820490506001821680620002ed57607f821691505b60208210811415620003045762000303620002a5565b5b50919050565b614f41806200031a6000396000f3fe6080604052600436106102255760003560e01c80639590cf7511610123578063cef5234f116100ab578063e63ab1e91161006f578063e63ab1e914610834578063e985e9c51461085f578063f94c0a111461089c578063fdb0467a146108c7578063fedce7a8146108e357610225565b8063cef5234f1461074a578063d547741f14610787578063d6706328146107b0578063d8f5df66146107cc578063db4796c0146107f757610225565b8063a22cb465116100f2578063a22cb46514610652578063b7134dfa1461067b578063b88d4fde146106b9578063c87b56dd146106e2578063ced3a4031461071f57610225565b80639590cf75146105a357806395d89b41146105bf5780639e42ce18146105ea578063a217fddf1461062757610225565b806340d097c3116101b15780636352211e116101755780636352211e146104aa57806370a08231146104e75780637ef65609146105245780638456cb591461054f57806391d148541461056657610225565b806340d097c3146103c757806342842e0e146103f0578063438a8ece14610419578063551d4f2a146104565780635c975abb1461047f57610225565b806323b872dd116101f857806323b872dd146102f8578063248a9ca3146103215780632f2ff15d1461035e57806336568abe146103875780633f4ba83a146103b057610225565b806301ffc9a71461022a57806306fdde0314610267578063081812fc14610292578063095ea7b3146102cf575b600080fd5b34801561023657600080fd5b50610251600480360381019061024c9190613386565b610920565b60405161025e91906133ce565b60405180910390f35b34801561027357600080fd5b5061027c610932565b6040516102899190613482565b60405180910390f35b34801561029e57600080fd5b506102b960048036038101906102b491906134da565b6109c4565b6040516102c69190613548565b60405180910390f35b3480156102db57600080fd5b506102f660048036038101906102f1919061358f565b610a0a565b005b34801561030457600080fd5b5061031f600480360381019061031a91906135cf565b610b22565b005b34801561032d57600080fd5b5061034860048036038101906103439190613658565b610b82565b6040516103559190613694565b60405180910390f35b34801561036a57600080fd5b50610385600480360381019061038091906136af565b610ba2565b005b34801561039357600080fd5b506103ae60048036038101906103a991906136af565b610bc3565b005b3480156103bc57600080fd5b506103c5610c46565b005b3480156103d357600080fd5b506103ee60048036038101906103e991906136ef565b610c7b565b005b3480156103fc57600080fd5b50610417600480360381019061041291906135cf565b610ccc565b005b34801561042557600080fd5b50610440600480360381019061043b919061371c565b610cec565b60405161044d919061376b565b60405180910390f35b34801561046257600080fd5b5061047d6004803603810190610478919061358f565b610d11565b005b34801561048b57600080fd5b50610494610ed9565b6040516104a191906133ce565b60405180910390f35b3480156104b657600080fd5b506104d160048036038101906104cc91906134da565b610ef0565b6040516104de9190613548565b60405180910390f35b3480156104f357600080fd5b5061050e600480360381019061050991906136ef565b610fa2565b60405161051b919061376b565b60405180910390f35b34801561053057600080fd5b5061053961105a565b604051610546919061376b565b60405180910390f35b34801561055b57600080fd5b50610564611060565b005b34801561057257600080fd5b5061058d600480360381019061058891906136af565b611095565b60405161059a91906133ce565b60405180910390f35b6105bd60048036038101906105b891906134da565b611100565b005b3480156105cb57600080fd5b506105d46111c6565b6040516105e19190613482565b60405180910390f35b3480156105f657600080fd5b50610611600480360381019061060c91906134da565b611258565b60405161061e919061376b565b60405180910390f35b34801561063357600080fd5b5061063c611270565b6040516106499190613694565b60405180910390f35b34801561065e57600080fd5b50610679600480360381019061067491906137b2565b611277565b005b34801561068757600080fd5b506106a2600480360381019061069d91906137f2565b61128d565b6040516106b0929190613832565b60405180910390f35b3480156106c557600080fd5b506106e060048036038101906106db9190613990565b6112e4565b005b3480156106ee57600080fd5b50610709600480360381019061070491906134da565b611346565b6040516107169190613482565b60405180910390f35b34801561072b57600080fd5b50610734611395565b6040516107419190613694565b60405180910390f35b34801561075657600080fd5b50610771600480360381019061076c919061371c565b6113b9565b60405161077e91906133ce565b60405180910390f35b34801561079357600080fd5b506107ae60048036038101906107a991906136af565b6113e8565b005b6107ca60048036038101906107c59190613a13565b611409565b005b3480156107d857600080fd5b506107e1611830565b6040516107ee919061376b565b60405180910390f35b34801561080357600080fd5b5061081e600480360381019061081991906134da565b611836565b60405161082b9190613b4f565b60405180910390f35b34801561084057600080fd5b506108496118fb565b6040516108569190613694565b60405180910390f35b34801561086b57600080fd5b5061088660048036038101906108819190613b6b565b61191f565b60405161089391906133ce565b60405180910390f35b3480156108a857600080fd5b506108b16119b3565b6040516108be9190613694565b60405180910390f35b6108e160048036038101906108dc9190613bab565b6119d7565b005b3480156108ef57600080fd5b5061090a6004803603810190610905919061371c565b611d93565b60405161091791906133ce565b60405180910390f35b600061092b82611dc2565b9050919050565b60606000805461094190613c2d565b80601f016020809104026020016040519081016040528092919081815260200182805461096d90613c2d565b80156109ba5780601f1061098f576101008083540402835291602001916109ba565b820191906000526020600020905b81548152906001019060200180831161099d57829003601f168201915b5050505050905090565b60006109cf82611e3c565b6004600083815260200190815260200160002060009054906101000a900473ffffffffffffffffffffffffffffffffffffffff169050919050565b6000610a1582610ef0565b90508073ffffffffffffffffffffffffffffffffffffffff168373ffffffffffffffffffffffffffffffffffffffff161415610a86576040517f08c379a0000000000000000000000000000000000000000000000000000000008152600401610a7d90613cd1565b60405180910390fd5b8073ffffffffffffffffffffffffffffffffffffffff16610aa5611e87565b73ffffffffffffffffffffffffffffffffffffffff161480610ad45750610ad381610ace611e87565b61191f565b5b610b13576040517f08c379a0000000000000000000000000000000000000000000000000000000008152600401610b0a90613d63565b60405180910390fd5b610b1d8383611e8f565b505050565b610b33610b2d611e87565b82611f48565b610b72576040517f08c379a0000000000000000000000000000000000000000000000000000000008152600401610b6990613df5565b60405180910390fd5b610b7d838383611fdd565b505050565b600060076000838152602001908152602001600020600101549050919050565b610bab82610b82565b610bb481612244565b610bbe8383612258565b505050565b610bcb611e87565b73ffffffffffffffffffffffffffffffffffffffff168173ffffffffffffffffffffffffffffffffffffffff1614610c38576040517f08c379a0000000000000000000000000000000000000000000000000000000008152600401610c2f90613e87565b60405180910390fd5b610c428282612339565b5050565b7f65d7a28e3265b37a6474929f336521b332c1681b933f6cb9f3376673440d862a610c7081612244565b610c7861241b565b50565b7f2dee5dd865e09c7ce6788d674a03682994f0b44339403ca07ac129a9de4bed6a610ca581612244565b6000610cb1600861247e565b9050610cbd600861248c565b610cc783826124a2565b505050565b610ce7838383604051806020016040528060008152506112e4565b505050565b600d602052816000526040600020602052806000526040600020600091509150505481565b6000801b610d1e81612244565b60001515600a600084815260200190815260200160002060008573ffffffffffffffffffffffffffffffffffffffff1673ffffffffffffffffffffffffffffffffffffffff16815260200190815260200160002060009054906101000a900460ff16151514610dc2576040517f08c379a0000000000000000000000000000000000000000000000000000000008152600401610db990613f19565b60405180910390fd5b600073ffffffffffffffffffffffffffffffffffffffff168373ffffffffffffffffffffffffffffffffffffffff161415610e32576040517f08c379a0000000000000000000000000000000000000000000000000000000008152600401610e2990613fab565b60405180910390fd5b6001600a600084815260200190815260200160002060008573ffffffffffffffffffffffffffffffffffffffff1673ffffffffffffffffffffffffffffffffffffffff16815260200190815260200160002060006101000a81548160ff0219169083151502179055507fda2d276774468c5f10e6d2a90d49391d28dcf5f45b97f6f4f867444ff4d3319e8383604051610ecc929190613832565b60405180910390a1505050565b6000600660009054906101000a900460ff16905090565b6000806002600084815260200190815260200160002060009054906101000a900473ffffffffffffffffffffffffffffffffffffffff169050600073ffffffffffffffffffffffffffffffffffffffff168173ffffffffffffffffffffffffffffffffffffffff161415610f99576040517f08c379a0000000000000000000000000000000000000000000000000000000008152600401610f9090614017565b60405180910390fd5b80915050919050565b60008073ffffffffffffffffffffffffffffffffffffffff168273ffffffffffffffffffffffffffffffffffffffff161415611013576040517f08c379a000000000000000000000000000000000000000000000000000000000815260040161100a906140a9565b60405180910390fd5b600360008373ffffffffffffffffffffffffffffffffffffffff1673ffffffffffffffffffffffffffffffffffffffff168152602001908152602001600020549050919050565b6101f481565b7f65d7a28e3265b37a6474929f336521b332c1681b933f6cb9f3376673440d862a61108a81612244565b6110926124c0565b50565b60006007600084815260200190815260200160002060000160008373ffffffffffffffffffffffffffffffffffffffff1673ffffffffffffffffffffffffffffffffffffffff16815260200190815260200160002060009054906101000a900460ff16905092915050565b600073ffffffffffffffffffffffffffffffffffffffff1661112182610ef0565b73ffffffffffffffffffffffffffffffffffffffff161415611178576040517f08c379a000000000000000000000000000000000000000000000000000000000815260040161116f9061413b565b60405180910390fd5b611183816001612523565b6000600190507f34ef4ac64e0eac8a04fe2b95d0d037921287716ff3019d01b6712d2e9507509582826040516111ba92919061415b565b60405180910390a15050565b6060600180546111d590613c2d565b80601f016020809104026020016040519081016040528092919081815260200182805461120190613c2d565b801561124e5780601f106112235761010080835404028352916020019161124e565b820191906000526020600020905b81548152906001019060200180831161123157829003601f168201915b5050505050905090565b600e6020528060005260406000206000915090505481565b6000801b81565b611289611282611e87565b8383612758565b5050565b600c60205281600052604060002081600581106112a957600080fd5b60020201600091509150508060000160009054906101000a900473ffffffffffffffffffffffffffffffffffffffff16908060010154905082565b6112f56112ef611e87565b83611f48565b611334576040517f08c379a000000000000000000000000000000000000000000000000000000000815260040161132b90613df5565b60405180910390fd5b611340848484846128c5565b50505050565b606061135182612921565b611390576040517f08c379a0000000000000000000000000000000000000000000000000000000008152600401611387906141d0565b60405180910390fd5b919050565b7fc8a41221bcd7fcf2c225f5a9265e1d4d39949d89197159d59e5f4b87b62c419e81565b600b6020528160005260406000206020528060005260406000206000915091509054906101000a900460ff1681565b6113f182610b82565b6113fa81612244565b6114048383612339565b505050565b7f2dee5dd865e09c7ce6788d674a03682994f0b44339403ca07ac129a9de4bed6a61143381612244565b6000600d600086815260200190815260200160002060008573ffffffffffffffffffffffffffffffffffffffff1673ffffffffffffffffffffffffffffffffffffffff16815260200190815260200160002054101580156114a757506005600e600086815260200190815260200160002054105b6114e6576040517f08c379a00000000000000000000000000000000000000000000000000000000081526004016114dd90614262565b60405180910390fd5b6000600d600086815260200190815260200160002060008573ffffffffffffffffffffffffffffffffffffffff1673ffffffffffffffffffffffffffffffffffffffff168152602001908152602001600020549050600081141561169457600e60008681526020019081526020016000206000815480929190611568906142b1565b9190505550600e600086815260200190815260200160002054600d600087815260200190815260200160002060008673ffffffffffffffffffffffffffffffffffffffff1673ffffffffffffffffffffffffffffffffffffffff16815260200190815260200160002081905550600d600086815260200190815260200160002060008573ffffffffffffffffffffffffffffffffffffffff1673ffffffffffffffffffffffffffffffffffffffff16815260200190815260200160002054905083600c6000878152602001908152602001600020826005811061164e5761164d6142fa565b5b6002020160000160006101000a81548173ffffffffffffffffffffffffffffffffffffffff021916908373ffffffffffffffffffffffffffffffffffffffff1602179055505b600073ffffffffffffffffffffffffffffffffffffffff168473ffffffffffffffffffffffffffffffffffffffff1614156117105782341461170b576040517f08c379a00000000000000000000000000000000000000000000000000000000081526004016117029061439b565b60405180910390fd5b6117a1565b8373ffffffffffffffffffffffffffffffffffffffff166323b872dd3330866040518463ffffffff1660e01b815260040161174d939291906143bb565b602060405180830381600087803b15801561176757600080fd5b505af115801561177b573d6000803e3d6000fd5b505050506040513d601f19601f8201168201806040525081019061179f9190614407565b505b82600c600087815260200190815260200160002082600581106117c7576117c66142fa565b5b6002020160010160008282546117dd9190614434565b925050819055507f03b9932ccfcbee04cee8cedad7802dbe5c786c57591e9a7cd4c8fea13b13be8285858561181189610ef0565b604051611821949392919061448a565b60405180910390a15050505050565b60095481565b61183e6132bd565b600c6000838152602001908152602001600020600580602002604051908101604052809291906000905b828210156118f0578382600202016040518060400160405290816000820160009054906101000a900473ffffffffffffffffffffffffffffffffffffffff1673ffffffffffffffffffffffffffffffffffffffff1673ffffffffffffffffffffffffffffffffffffffff16815260200160018201548152505081526020019060010190611868565b505050509050919050565b7f65d7a28e3265b37a6474929f336521b332c1681b933f6cb9f3376673440d862a81565b6000600560008473ffffffffffffffffffffffffffffffffffffffff1673ffffffffffffffffffffffffffffffffffffffff16815260200190815260200160002060008373ffffffffffffffffffffffffffffffffffffffff1673ffffffffffffffffffffffffffffffffffffffff16815260200190815260200160002060009054906101000a900460ff16905092915050565b7f2dee5dd865e09c7ce6788d674a03682994f0b44339403ca07ac129a9de4bed6a81565b600a600083815260200190815260200160002060008473ffffffffffffffffffffffffffffffffffffffff1673ffffffffffffffffffffffffffffffffffffffff16815260200190815260200160002060009054906101000a900460ff16611a74576040517f08c379a0000000000000000000000000000000000000000000000000000000008152600401611a6b90614541565b60405180910390fd5b6000611a7f83610ef0565b90508073ffffffffffffffffffffffffffffffffffffffff168473ffffffffffffffffffffffffffffffffffffffff16636352211e846040518263ffffffff1660e01b8152600401611ad1919061376b565b60206040518083038186803b158015611ae957600080fd5b505afa158015611afd573d6000803e3d6000fd5b505050506040513d601f19601f82011682018060405250810190611b219190614576565b73ffffffffffffffffffffffffffffffffffffffff1614611b77576040517f08c379a0000000000000000000000000000000000000000000000000000000008152600401611b6e9061463b565b60405180910390fd5b600073ffffffffffffffffffffffffffffffffffffffff16611b9884610ef0565b73ffffffffffffffffffffffffffffffffffffffff161415611bef576040517f08c379a0000000000000000000000000000000000000000000000000000000008152600401611be69061413b565b60405180910390fd5b600b600083815260200190815260200160002060008573ffffffffffffffffffffffffffffffffffffffff1673ffffffffffffffffffffffffffffffffffffffff16815260200190815260200160002060009054906101000a900460ff1615611c8d576040517f08c379a0000000000000000000000000000000000000000000000000000000008152600401611c84906146cd565b60405180910390fd5b611c99836101f4612523565b6000600190506001600b600085815260200190815260200160002060008773ffffffffffffffffffffffffffffffffffffffff1673ffffffffffffffffffffffffffffffffffffffff16815260200190815260200160002060006101000a81548160ff0219169083151502179055508173ffffffffffffffffffffffffffffffffffffffff166108fc829081150290604051600060405180830381858888f19350505050158015611d4e573d6000803e3d6000fd5b507f1063fb17e9a9b2ee9e38c97a5ded9fa5840d8f7023bebf0b0e0489f2e1344bbb84828786604051611d8494939291906146ed565b60405180910390a15050505050565b600a6020528160005260406000206020528060005260406000206000915091509054906101000a900460ff1681565b60007f7965db0b000000000000000000000000000000000000000000000000000000007bffffffffffffffffffffffffffffffffffffffffffffffffffffffff1916827bffffffffffffffffffffffffffffffffffffffffffffffffffffffff19161480611e355750611e348261298d565b5b9050919050565b611e4581612921565b611e84576040517f08c379a0000000000000000000000000000000000000000000000000000000008152600401611e7b90614017565b60405180910390fd5b50565b600033905090565b816004600083815260200190815260200160002060006101000a81548173ffffffffffffffffffffffffffffffffffffffff021916908373ffffffffffffffffffffffffffffffffffffffff160217905550808273ffffffffffffffffffffffffffffffffffffffff16611f0283610ef0565b73ffffffffffffffffffffffffffffffffffffffff167f8c5be1e5ebec7d5bd14f71427d1e84f3dd0314c0f7b2291e5b200ac8c7c3b92560405160405180910390a45050565b600080611f5483610ef0565b90508073ffffffffffffffffffffffffffffffffffffffff168473ffffffffffffffffffffffffffffffffffffffff161480611f965750611f95818561191f565b5b80611fd457508373ffffffffffffffffffffffffffffffffffffffff16611fbc846109c4565b73ffffffffffffffffffffffffffffffffffffffff16145b91505092915050565b8273ffffffffffffffffffffffffffffffffffffffff16611ffd82610ef0565b73ffffffffffffffffffffffffffffffffffffffff1614612053576040517f08c379a000000000000000000000000000000000000000000000000000000000815260040161204a906147a4565b60405180910390fd5b600073ffffffffffffffffffffffffffffffffffffffff168273ffffffffffffffffffffffffffffffffffffffff1614156120c3576040517f08c379a00000000000000000000000000000000000000000000000000000000081526004016120ba90614836565b60405180910390fd5b6120ce838383612a6f565b6120d9600082611e8f565b6001600360008573ffffffffffffffffffffffffffffffffffffffff1673ffffffffffffffffffffffffffffffffffffffff16815260200190815260200160002060008282546121299190614856565b925050819055506001600360008473ffffffffffffffffffffffffffffffffffffffff1673ffffffffffffffffffffffffffffffffffffffff16815260200190815260200160002060008282546121809190614434565b92505081905550816002600083815260200190815260200160002060006101000a81548173ffffffffffffffffffffffffffffffffffffffff021916908373ffffffffffffffffffffffffffffffffffffffff160217905550808273ffffffffffffffffffffffffffffffffffffffff168473ffffffffffffffffffffffffffffffffffffffff167fddf252ad1be2c89b69c2b068fc378daa952ba7f163c4a11628f55a4df523b3ef60405160405180910390a461223f838383612aee565b505050565b61225581612250611e87565b612af3565b50565b6122628282611095565b6123355760016007600084815260200190815260200160002060000160008373ffffffffffffffffffffffffffffffffffffffff1673ffffffffffffffffffffffffffffffffffffffff16815260200190815260200160002060006101000a81548160ff0219169083151502179055506122da611e87565b73ffffffffffffffffffffffffffffffffffffffff168173ffffffffffffffffffffffffffffffffffffffff16837f2f8788117e7eff1d82e926ec794901d17c78024a50270940304540a733656f0d60405160405180910390a45b5050565b6123438282611095565b156124175760006007600084815260200190815260200160002060000160008373ffffffffffffffffffffffffffffffffffffffff1673ffffffffffffffffffffffffffffffffffffffff16815260200190815260200160002060006101000a81548160ff0219169083151502179055506123bc611e87565b73ffffffffffffffffffffffffffffffffffffffff168173ffffffffffffffffffffffffffffffffffffffff16837ff6391f5c32d9c69d2a47ea670b442974b53935d1edc7fd64eb21e047a839171b60405160405180910390a45b5050565b612423612b90565b6000600660006101000a81548160ff0219169083151502179055507f5db9ee0a495bf2e6ff9c91a7834c1ba4fdd244a5e8aa4e537bd38aeae4b073aa612467611e87565b6040516124749190613548565b60405180910390a1565b600081600001549050919050565b6001816000016000828254019250508190555050565b6124bc828260405180602001604052806000815250612bd9565b5050565b6124c8612c34565b6001600660006101000a81548160ff0219169083151502179055507f62e78cea01bee320cd4e420270b5ea74000d11b0c9f74754ebdbfc544b05a25861250c611e87565b6040516125199190613548565b60405180910390a1565b60005b600e600084815260200190815260200160002054811015612753576000600c60008581526020019081526020016000208260058110612568576125676142fa565b5b6002020160000160009054906101000a900473ffffffffffffffffffffffffffffffffffffffff169050600061271084600c600088815260200190815260200160002085600581106125bd576125bc6142fa565b5b60020201600101546125cf919061488a565b6125d99190614913565b905080600c60008781526020019081526020016000208460058110612601576126006142fa565b5b6002020160010160008282546126179190614856565b92505081905550600073ffffffffffffffffffffffffffffffffffffffff168273ffffffffffffffffffffffffffffffffffffffff1614156126a75761265c85610ef0565b73ffffffffffffffffffffffffffffffffffffffff166108fc829081150290604051600060405180830381858888f193505050501580156126a1573d6000803e3d6000fd5b5061273e565b8173ffffffffffffffffffffffffffffffffffffffff1663a9059cbb6126cc87610ef0565b836040518363ffffffff1660e01b81526004016126ea929190613832565b602060405180830381600087803b15801561270457600080fd5b505af1158015612718573d6000803e3d6000fd5b505050506040513d601f19601f8201168201806040525081019061273c9190614407565b505b5050808061274b906142b1565b915050612526565b505050565b8173ffffffffffffffffffffffffffffffffffffffff168373ffffffffffffffffffffffffffffffffffffffff1614156127c7576040517f08c379a00000000000000000000000000000000000000000000000000000000081526004016127be90614990565b60405180910390fd5b80600560008573ffffffffffffffffffffffffffffffffffffffff1673ffffffffffffffffffffffffffffffffffffffff16815260200190815260200160002060008473ffffffffffffffffffffffffffffffffffffffff1673ffffffffffffffffffffffffffffffffffffffff16815260200190815260200160002060006101000a81548160ff0219169083151502179055508173ffffffffffffffffffffffffffffffffffffffff168373ffffffffffffffffffffffffffffffffffffffff167f17307eab39ab6107e8899845ad3d59bd9653f200f220920489ca2b5937696c31836040516128b891906133ce565b60405180910390a3505050565b6128d0848484611fdd565b6128dc84848484612c7e565b61291b576040517f08c379a000000000000000000000000000000000000000000000000000000000815260040161291290614a22565b60405180910390fd5b50505050565b60008073ffffffffffffffffffffffffffffffffffffffff166002600084815260200190815260200160002060009054906101000a900473ffffffffffffffffffffffffffffffffffffffff1673ffffffffffffffffffffffffffffffffffffffff1614159050919050565b60007f80ac58cd000000000000000000000000000000000000000000000000000000007bffffffffffffffffffffffffffffffffffffffffffffffffffffffff1916827bffffffffffffffffffffffffffffffffffffffffffffffffffffffff19161480612a5857507f5b5e139f000000000000000000000000000000000000000000000000000000007bffffffffffffffffffffffffffffffffffffffffffffffffffffffff1916827bffffffffffffffffffffffffffffffffffffffffffffffffffffffff1916145b80612a685750612a6782612e15565b5b9050919050565b600073ffffffffffffffffffffffffffffffffffffffff168373ffffffffffffffffffffffffffffffffffffffff1614612ade576040517f08c379a0000000000000000000000000000000000000000000000000000000008152600401612ad590614ab4565b60405180910390fd5b612ae9838383612e7f565b505050565b505050565b612afd8282611095565b612b8c57612b228173ffffffffffffffffffffffffffffffffffffffff166014612e84565b612b308360001c6020612e84565b604051602001612b41929190614ba8565b6040516020818303038152906040526040517f08c379a0000000000000000000000000000000000000000000000000000000008152600401612b839190613482565b60405180910390fd5b5050565b612b98610ed9565b612bd7576040517f08c379a0000000000000000000000000000000000000000000000000000000008152600401612bce90614c2e565b60405180910390fd5b565b612be383836130c0565b612bf06000848484612c7e565b612c2f576040517f08c379a0000000000000000000000000000000000000000000000000000000008152600401612c2690614a22565b60405180910390fd5b505050565b612c3c610ed9565b15612c7c576040517f08c379a0000000000000000000000000000000000000000000000000000000008152600401612c7390614c9a565b60405180910390fd5b565b6000612c9f8473ffffffffffffffffffffffffffffffffffffffff1661329a565b15612e08578373ffffffffffffffffffffffffffffffffffffffff1663150b7a02612cc8611e87565b8786866040518563ffffffff1660e01b8152600401612cea9493929190614d0f565b602060405180830381600087803b158015612d0457600080fd5b505af1925050508015612d3557506040513d601f19601f82011682018060405250810190612d329190614d70565b60015b612db8573d8060008114612d65576040519150601f19603f3d011682016040523d82523d6000602084013e612d6a565b606091505b50600081511415612db0576040517f08c379a0000000000000000000000000000000000000000000000000000000008152600401612da790614a22565b60405180910390fd5b805181602001fd5b63150b7a0260e01b7bffffffffffffffffffffffffffffffffffffffffffffffffffffffff1916817bffffffffffffffffffffffffffffffffffffffffffffffffffffffff191614915050612e0d565b600190505b949350505050565b60007f01ffc9a7000000000000000000000000000000000000000000000000000000007bffffffffffffffffffffffffffffffffffffffffffffffffffffffff1916827bffffffffffffffffffffffffffffffffffffffffffffffffffffffff1916149050919050565b505050565b606060006002836002612e97919061488a565b612ea19190614434565b67ffffffffffffffff811115612eba57612eb9613865565b5b6040519080825280601f01601f191660200182016040528015612eec5781602001600182028036833780820191505090505b5090507f300000000000000000000000000000000000000000000000000000000000000081600081518110612f2457612f236142fa565b5b60200101907effffffffffffffffffffffffffffffffffffffffffffffffffffffffffffff1916908160001a9053507f780000000000000000000000000000000000000000000000000000000000000081600181518110612f8857612f876142fa565b5b60200101907effffffffffffffffffffffffffffffffffffffffffffffffffffffffffffff1916908160001a90535060006001846002612fc8919061488a565b612fd29190614434565b90505b6001811115613072577f3031323334353637383961626364656600000000000000000000000000000000600f861660108110613014576130136142fa565b5b1a60f81b82828151811061302b5761302a6142fa565b5b60200101907effffffffffffffffffffffffffffffffffffffffffffffffffffffffffffff1916908160001a905350600485901c94508061306b90614d9d565b9050612fd5565b50600084146130b6576040517f08c379a00000000000000000000000000000000000000000000000000000000081526004016130ad90614e13565b60405180910390fd5b8091505092915050565b600073ffffffffffffffffffffffffffffffffffffffff168273ffffffffffffffffffffffffffffffffffffffff161415613130576040517f08c379a000000000000000000000000000000000000000000000000000000000815260040161312790614e7f565b60405180910390fd5b61313981612921565b15613179576040517f08c379a000000000000000000000000000000000000000000000000000000000815260040161317090614eeb565b60405180910390fd5b61318560008383612a6f565b6001600360008473ffffffffffffffffffffffffffffffffffffffff1673ffffffffffffffffffffffffffffffffffffffff16815260200190815260200160002060008282546131d59190614434565b92505081905550816002600083815260200190815260200160002060006101000a81548173ffffffffffffffffffffffffffffffffffffffff021916908373ffffffffffffffffffffffffffffffffffffffff160217905550808273ffffffffffffffffffffffffffffffffffffffff16600073ffffffffffffffffffffffffffffffffffffffff167fddf252ad1be2c89b69c2b068fc378daa952ba7f163c4a11628f55a4df523b3ef60405160405180910390a461329660008383612aee565b5050565b6000808273ffffffffffffffffffffffffffffffffffffffff163b119050919050565b6040518060a001604052806005905b6132d46132ea565b8152602001906001900390816132cc5790505090565b6040518060400160405280600073ffffffffffffffffffffffffffffffffffffffff168152602001600081525090565b6000604051905090565b600080fd5b600080fd5b60007fffffffff0000000000000000000000000000000000000000000000000000000082169050919050565b6133638161332e565b811461336e57600080fd5b50565b6000813590506133808161335a565b92915050565b60006020828403121561339c5761339b613324565b5b60006133aa84828501613371565b91505092915050565b60008115159050919050565b6133c8816133b3565b82525050565b60006020820190506133e360008301846133bf565b92915050565b600081519050919050565b600082825260208201905092915050565b60005b83811015613423578082015181840152602081019050613408565b83811115613432576000848401525b50505050565b6000601f19601f8301169050919050565b6000613454826133e9565b61345e81856133f4565b935061346e818560208601613405565b61347781613438565b840191505092915050565b6000602082019050818103600083015261349c8184613449565b905092915050565b6000819050919050565b6134b7816134a4565b81146134c257600080fd5b50565b6000813590506134d4816134ae565b92915050565b6000602082840312156134f0576134ef613324565b5b60006134fe848285016134c5565b91505092915050565b600073ffffffffffffffffffffffffffffffffffffffff82169050919050565b600061353282613507565b9050919050565b61354281613527565b82525050565b600060208201905061355d6000830184613539565b92915050565b61356c81613527565b811461357757600080fd5b50565b60008135905061358981613563565b92915050565b600080604083850312156135a6576135a5613324565b5b60006135b48582860161357a565b92505060206135c5858286016134c5565b9150509250929050565b6000806000606084860312156135e8576135e7613324565b5b60006135f68682870161357a565b93505060206136078682870161357a565b9250506040613618868287016134c5565b9150509250925092565b6000819050919050565b61363581613622565b811461364057600080fd5b50565b6000813590506136528161362c565b92915050565b60006020828403121561366e5761366d613324565b5b600061367c84828501613643565b91505092915050565b61368e81613622565b82525050565b60006020820190506136a96000830184613685565b92915050565b600080604083850312156136c6576136c5613324565b5b60006136d485828601613643565b92505060206136e58582860161357a565b9150509250929050565b60006020828403121561370557613704613324565b5b60006137138482850161357a565b91505092915050565b6000806040838503121561373357613732613324565b5b6000613741858286016134c5565b92505060206137528582860161357a565b9150509250929050565b613765816134a4565b82525050565b6000602082019050613780600083018461375c565b92915050565b61378f816133b3565b811461379a57600080fd5b50565b6000813590506137ac81613786565b92915050565b600080604083850312156137c9576137c8613324565b5b60006137d78582860161357a565b92505060206137e88582860161379d565b9150509250929050565b6000806040838503121561380957613808613324565b5b6000613817858286016134c5565b9250506020613828858286016134c5565b9150509250929050565b60006040820190506138476000830185613539565b613854602083018461375c565b9392505050565b600080fd5b600080fd5b7f4e487b7100000000000000000000000000000000000000000000000000000000600052604160045260246000fd5b61389d82613438565b810181811067ffffffffffffffff821117156138bc576138bb613865565b5b80604052505050565b60006138cf61331a565b90506138db8282613894565b919050565b600067ffffffffffffffff8211156138fb576138fa613865565b5b61390482613438565b9050602081019050919050565b82818337600083830152505050565b600061393361392e846138e0565b6138c5565b90508281526020810184848401111561394f5761394e613860565b5b61395a848285613911565b509392505050565b600082601f8301126139775761397661385b565b5b8135613987848260208601613920565b91505092915050565b600080600080608085870312156139aa576139a9613324565b5b60006139b88782880161357a565b94505060206139c98782880161357a565b93505060406139da878288016134c5565b925050606085013567ffffffffffffffff8111156139fb576139fa613329565b5b613a0787828801613962565b91505092959194509250565b600080600060608486031215613a2c57613a2b613324565b5b6000613a3a868287016134c5565b9350506020613a4b8682870161357a565b9250506040613a5c868287016134c5565b9150509250925092565b600060059050919050565b600081905092915050565b6000819050919050565b613a8f81613527565b82525050565b613a9e816134a4565b82525050565b604082016000820151613aba6000850182613a86565b506020820151613acd6020850182613a95565b50505050565b6000613adf8383613aa4565b60408301905092915050565b6000602082019050919050565b613b0181613a66565b613b0b8184613a71565b9250613b1682613a7c565b8060005b83811015613b47578151613b2e8782613ad3565b9650613b3983613aeb565b925050600181019050613b1a565b505050505050565b600061014082019050613b656000830184613af8565b92915050565b60008060408385031215613b8257613b81613324565b5b6000613b908582860161357a565b9250506020613ba18582860161357a565b9150509250929050565b600080600060608486031215613bc457613bc3613324565b5b6000613bd28682870161357a565b9350506020613be3868287016134c5565b9250506040613bf4868287016134c5565b9150509250925092565b7f4e487b7100000000000000000000000000000000000000000000000000000000600052602260045260246000fd5b60006002820490506001821680613c4557607f821691505b60208210811415613c5957613c58613bfe565b5b50919050565b7f4552433732313a20617070726f76616c20746f2063757272656e74206f776e6560008201527f7200000000000000000000000000000000000000000000000000000000000000602082015250565b6000613cbb6021836133f4565b9150613cc682613c5f565b604082019050919050565b60006020820190508181036000830152613cea81613cae565b9050919050565b7f4552433732313a20617070726f76652063616c6c6572206973206e6f7420746f60008201527f6b656e206f776e6572206e6f7220617070726f76656420666f7220616c6c0000602082015250565b6000613d4d603e836133f4565b9150613d5882613cf1565b604082019050919050565b60006020820190508181036000830152613d7c81613d40565b9050919050565b7f4552433732313a2063616c6c6572206973206e6f7420746f6b656e206f776e6560008201527f72206e6f7220617070726f766564000000000000000000000000000000000000602082015250565b6000613ddf602e836133f4565b9150613dea82613d83565b604082019050919050565b60006020820190508181036000830152613e0e81613dd2565b9050919050565b7f416363657373436f6e74726f6c3a2063616e206f6e6c792072656e6f756e636560008201527f20726f6c657320666f722073656c660000000000000000000000000000000000602082015250565b6000613e71602f836133f4565b9150613e7c82613e15565b604082019050919050565b60006020820190508181036000830152613ea081613e64565b9050919050565b7f536f756c46756e642e77686974656c6973744e66743a2061646472657373206160008201527f6c72656164792061646465640000000000000000000000000000000000000000602082015250565b6000613f03602c836133f4565b9150613f0e82613ea7565b604082019050919050565b60006020820190508181036000830152613f3281613ef6565b9050919050565b7f536f756c46756e642e77686974656c6973744e66743a2063616e6e6f7420616460008201527f6420302061646472657373000000000000000000000000000000000000000000602082015250565b6000613f95602b836133f4565b9150613fa082613f39565b604082019050919050565b60006020820190508181036000830152613fc481613f88565b9050919050565b7f4552433732313a20696e76616c696420746f6b656e2049440000000000000000600082015250565b60006140016018836133f4565b915061400c82613fcb565b602082019050919050565b6000602082019050818103600083015261403081613ff4565b9050919050565b7f4552433732313a2061646472657373207a65726f206973206e6f74206120766160008201527f6c6964206f776e65720000000000000000000000000000000000000000000000602082015250565b60006140936029836133f4565b915061409e82614037565b604082019050919050565b600060208201905081810360008301526140c281614086565b9050919050565b7f536f756c46756e642e636c61696d46756e64734561726c793a2066756e64206460008201527f6f6573206e6f7420657869737400000000000000000000000000000000000000602082015250565b6000614125602d836133f4565b9150614130826140c9565b604082019050919050565b6000602082019050818103600083015261415481614118565b9050919050565b6000604082019050614170600083018561375c565b61417d602083018461375c565b9392505050565b7f546f6b656e20646f6573206e6f74206578697374000000000000000000000000600082015250565b60006141ba6014836133f4565b91506141c582614184565b602082019050919050565b600060208201905081810360008301526141e9816141ad565b9050919050565b7f536f756c46756e642e6465706f73697446756e643a206d61782063757272656e60008201527f6379207479706520726561636865642e00000000000000000000000000000000602082015250565b600061424c6030836133f4565b9150614257826141f0565b604082019050919050565b6000602082019050818103600083015261427b8161423f565b9050919050565b7f4e487b7100000000000000000000000000000000000000000000000000000000600052601160045260246000fd5b60006142bc826134a4565b91507fffffffffffffffffffffffffffffffffffffffffffffffffffffffffffffffff8214156142ef576142ee614282565b5b600182019050919050565b7f4e487b7100000000000000000000000000000000000000000000000000000000600052603260045260246000fd5b7f536f756c46756e642e6465706f73697446756e643a20616d6f756e74206d697360008201527f6d617463682e0000000000000000000000000000000000000000000000000000602082015250565b60006143856026836133f4565b915061439082614329565b604082019050919050565b600060208201905081810360008301526143b481614378565b9050919050565b60006060820190506143d06000830186613539565b6143dd6020830185613539565b6143ea604083018461375c565b949350505050565b60008151905061440181613786565b92915050565b60006020828403121561441d5761441c613324565b5b600061442b848285016143f2565b91505092915050565b600061443f826134a4565b915061444a836134a4565b9250827fffffffffffffffffffffffffffffffffffffffffffffffffffffffffffffffff0382111561447f5761447e614282565b5b828201905092915050565b600060808201905061449f600083018761375c565b6144ac6020830186613539565b6144b9604083018561375c565b6144c66060830184613539565b95945050505050565b7f536f756c46756e642e636c61696d46756e64734561726c793a204e4654206e6f60008201527f742077686974656c697374656400000000000000000000000000000000000000602082015250565b600061452b602d836133f4565b9150614536826144cf565b604082019050919050565b6000602082019050818103600083015261455a8161451e565b9050919050565b60008151905061457081613563565b92915050565b60006020828403121561458c5761458b613324565b5b600061459a84828501614561565b91505092915050565b7f536f756c46756e642e636c61696d46756e64734561726c793a2062656e65666960008201527f636961727920646f6573206e6f74206f776e206e66742072657175697265642060208201527f746f20636c61696d2066756e6473000000000000000000000000000000000000604082015250565b6000614625604e836133f4565b9150614630826145a3565b606082019050919050565b6000602082019050818103600083015261465481614618565b9050919050565b7f536f756c46756e642e636c61696d46756e64734561726c793a20436c61696d2060008201527f746f6b656e204e46542068617320616c7265616479206265656e207370656e74602082015250565b60006146b76040836133f4565b91506146c28261465b565b604082019050919050565b600060208201905081810360008301526146e6816146aa565b9050919050565b6000608082019050614702600083018761375c565b61470f602083018661375c565b61471c6040830185613539565b614729606083018461375c565b95945050505050565b7f4552433732313a207472616e736665722066726f6d20696e636f72726563742060008201527f6f776e6572000000000000000000000000000000000000000000000000000000602082015250565b600061478e6025836133f4565b915061479982614732565b604082019050919050565b600060208201905081810360008301526147bd81614781565b9050919050565b7f4552433732313a207472616e7366657220746f20746865207a65726f2061646460008201527f7265737300000000000000000000000000000000000000000000000000000000602082015250565b60006148206024836133f4565b915061482b826147c4565b604082019050919050565b6000602082019050818103600083015261484f81614813565b9050919050565b6000614861826134a4565b915061486c836134a4565b92508282101561487f5761487e614282565b5b828203905092915050565b6000614895826134a4565b91506148a0836134a4565b9250817fffffffffffffffffffffffffffffffffffffffffffffffffffffffffffffffff04831182151516156148d9576148d8614282565b5b828202905092915050565b7f4e487b7100000000000000000000000000000000000000000000000000000000600052601260045260246000fd5b600061491e826134a4565b9150614929836134a4565b925082614939576149386148e4565b5b828204905092915050565b7f4552433732313a20617070726f766520746f2063616c6c657200000000000000600082015250565b600061497a6019836133f4565b915061498582614944565b602082019050919050565b600060208201905081810360008301526149a98161496d565b9050919050565b7f4552433732313a207472616e7366657220746f206e6f6e20455243373231526560008201527f63656976657220696d706c656d656e7465720000000000000000000000000000602082015250565b6000614a0c6032836133f4565b9150614a17826149b0565b604082019050919050565b60006020820190508181036000830152614a3b816149ff565b9050919050565b7f536f756c46756e643a20736f756c20626f756e6420746f6b656e2063616e6e6f60008201527f74206265207472616e7366657272656400000000000000000000000000000000602082015250565b6000614a9e6030836133f4565b9150614aa982614a42565b604082019050919050565b60006020820190508181036000830152614acd81614a91565b9050919050565b600081905092915050565b7f416363657373436f6e74726f6c3a206163636f756e7420000000000000000000600082015250565b6000614b15601783614ad4565b9150614b2082614adf565b601782019050919050565b6000614b36826133e9565b614b408185614ad4565b9350614b50818560208601613405565b80840191505092915050565b7f206973206d697373696e6720726f6c6520000000000000000000000000000000600082015250565b6000614b92601183614ad4565b9150614b9d82614b5c565b601182019050919050565b6000614bb382614b08565b9150614bbf8285614b2b565b9150614bca82614b85565b9150614bd68284614b2b565b91508190509392505050565b7f5061757361626c653a206e6f7420706175736564000000000000000000000000600082015250565b6000614c186014836133f4565b9150614c2382614be2565b602082019050919050565b60006020820190508181036000830152614c4781614c0b565b9050919050565b7f5061757361626c653a2070617573656400000000000000000000000000000000600082015250565b6000614c846010836133f4565b9150614c8f82614c4e565b602082019050919050565b60006020820190508181036000830152614cb381614c77565b9050919050565b600081519050919050565b600082825260208201905092915050565b6000614ce182614cba565b614ceb8185614cc5565b9350614cfb818560208601613405565b614d0481613438565b840191505092915050565b6000608082019050614d246000830187613539565b614d316020830186613539565b614d3e604083018561375c565b8181036060830152614d508184614cd6565b905095945050505050565b600081519050614d6a8161335a565b92915050565b600060208284031215614d8657614d85613324565b5b6000614d9484828501614d5b565b91505092915050565b6000614da8826134a4565b91506000821415614dbc57614dbb614282565b5b600182039050919050565b7f537472696e67733a20686578206c656e67746820696e73756666696369656e74600082015250565b6000614dfd6020836133f4565b9150614e0882614dc7565b602082019050919050565b60006020820190508181036000830152614e2c81614df0565b9050919050565b7f4552433732313a206d696e7420746f20746865207a65726f2061646472657373600082015250565b6000614e696020836133f4565b9150614e7482614e33565b602082019050919050565b60006020820190508181036000830152614e9881614e5c565b9050919050565b7f4552433732313a20746f6b656e20616c7265616479206d696e74656400000000600082015250565b6000614ed5601c836133f4565b9150614ee082614e9f565b602082019050919050565b60006020820190508181036000830152614f0481614ec8565b905091905056fea26469706673582212201c7f8e64857cc1afa3831ebc5cf458579724049fd63ce2b73abae32555f16c5164736f6c63430008090033a26469706673582212200c078aec7a589ea1445307cf1e328c25ace420f68871abf20da192b44a922b5e64736f6c63430008090033",
  "linkReferences": {},
  "deployedLinkReferences": {}
}